{
  "contractName": "FloteaICO",
  "abi": [
    {
      "constant": true,
      "inputs": [
        {
          "name": "",
          "type": "uint256"
        }
      ],
      "name": "proposals",
      "outputs": [
        {
          "name": "description",
          "type": "bytes32"
        },
        {
          "name": "endTime",
          "type": "uint256"
        },
        {
          "name": "result",
          "type": "uint8"
        },
        {
          "name": "actionType",
          "type": "uint8"
        },
        {
          "name": "actionAddress",
          "type": "address"
        },
        {
          "name": "name",
          "type": "bytes32"
        },
        {
          "name": "amount",
          "type": "uint256"
        }
      ],
      "payable": false,
      "stateMutability": "view",
      "type": "function"
    },
    {
      "constant": false,
      "inputs": [
        {
          "name": "_description",
          "type": "bytes32"
        },
        {
          "name": "_durationHours",
          "type": "uint256"
        },
        {
          "name": "_actionType",
          "type": "uint8"
        },
        {
          "name": "_actionAddress",
          "type": "address"
        },
        {
          "name": "_name",
          "type": "bytes32"
        },
        {
          "name": "_amount",
          "type": "uint256"
        }
      ],
      "name": "createProposal",
      "outputs": [],
      "payable": false,
      "stateMutability": "nonpayable",
      "type": "function"
    },
    {
      "constant": true,
      "inputs": [],
      "name": "initialized",
      "outputs": [
        {
          "name": "",
          "type": "bool"
        }
      ],
      "payable": false,
      "stateMutability": "view",
      "type": "function"
    },
    {
      "constant": true,
      "inputs": [],
      "name": "enabled",
      "outputs": [
        {
          "name": "",
          "type": "bool"
        }
      ],
      "payable": false,
      "stateMutability": "view",
      "type": "function"
    },
    {
      "constant": false,
      "inputs": [
        {
          "name": "proposalIndex",
          "type": "uint256"
        }
      ],
      "name": "finishProposal",
      "outputs": [],
      "payable": false,
      "stateMutability": "nonpayable",
      "type": "function"
    },
    {
      "constant": true,
      "inputs": [
        {
          "name": "",
          "type": "uint256"
        }
      ],
      "name": "participants",
      "outputs": [
        {
          "name": "name",
          "type": "bytes32"
        },
        {
          "name": "addr",
          "type": "address"
        }
      ],
      "payable": false,
      "stateMutability": "view",
      "type": "function"
    },
    {
      "constant": true,
      "inputs": [],
      "name": "participantsLength",
      "outputs": [
        {
          "name": "",
          "type": "uint256"
        }
      ],
      "payable": false,
      "stateMutability": "view",
      "type": "function"
    },
    {
      "constant": true,
      "inputs": [],
      "name": "proposalsLength",
      "outputs": [
        {
          "name": "",
          "type": "uint256"
        }
      ],
      "payable": false,
      "stateMutability": "view",
      "type": "function"
    },
    {
      "constant": true,
      "inputs": [
        {
          "name": "_actionType",
          "type": "uint8"
        },
        {
          "name": "_actionAddress",
          "type": "address"
        },
        {
          "name": "_senderAddress",
          "type": "address"
        }
      ],
      "name": "beforeCreateProposal",
      "outputs": [
        {
          "name": "",
          "type": "bool"
        },
        {
          "name": "",
          "type": "string"
        }
      ],
      "payable": false,
      "stateMutability": "view",
      "type": "function"
    },
    {
      "constant": true,
      "inputs": [],
      "name": "initialTokens",
      "outputs": [
        {
          "name": "",
          "type": "uint256"
        }
      ],
      "payable": false,
      "stateMutability": "view",
      "type": "function"
    },
    {
      "constant": true,
      "inputs": [
        {
          "name": "proposalIndex",
          "type": "uint256"
        },
        {
          "name": "senderAddress",
          "type": "address"
        }
      ],
      "name": "beforeFinishProposal",
      "outputs": [
        {
          "name": "error",
          "type": "bool"
        },
        {
          "name": "message",
          "type": "string"
        },
        {
          "name": "votedYes",
          "type": "uint256"
        },
        {
          "name": "votedNo",
          "type": "uint256"
        }
      ],
      "payable": false,
      "stateMutability": "view",
      "type": "function"
    },
    {
      "constant": true,
      "inputs": [],
      "name": "startTime",
      "outputs": [
        {
          "name": "",
          "type": "uint256"
        }
      ],
      "payable": false,
      "stateMutability": "view",
      "type": "function"
    },
    {
      "constant": true,
      "inputs": [
        {
          "name": "",
          "type": "uint256"
        },
        {
          "name": "",
          "type": "uint256"
        }
      ],
      "name": "phaseInfo",
      "outputs": [
        {
          "name": "",
          "type": "uint256"
        }
      ],
      "payable": false,
      "stateMutability": "view",
      "type": "function"
    },
    {
      "constant": true,
      "inputs": [],
      "name": "owner",
      "outputs": [
        {
          "name": "",
          "type": "address"
        }
      ],
      "payable": false,
      "stateMutability": "view",
      "type": "function"
    },
    {
      "constant": true,
      "inputs": [],
      "name": "priceDiscount",
      "outputs": [
        {
          "name": "",
          "type": "uint256"
        }
      ],
      "payable": false,
      "stateMutability": "view",
      "type": "function"
    },
    {
      "constant": true,
      "inputs": [],
      "name": "phase",
      "outputs": [
        {
          "name": "",
          "type": "uint256"
        }
      ],
      "payable": false,
      "stateMutability": "view",
      "type": "function"
    },
    {
      "constant": true,
      "inputs": [
        {
          "name": "index",
          "type": "uint256"
        }
      ],
      "name": "statusOfProposal",
      "outputs": [
        {
          "name": "",
          "type": "address[]"
        },
        {
          "name": "",
          "type": "bytes32[]"
        },
        {
          "name": "",
          "type": "uint8[]"
        }
      ],
      "payable": false,
      "stateMutability": "view",
      "type": "function"
    },
    {
      "constant": true,
      "inputs": [
        {
          "name": "proposalIndex",
          "type": "uint256"
        },
        {
          "name": "senderAddress",
          "type": "address"
        }
      ],
      "name": "beforeVoteInProposal",
      "outputs": [
        {
          "name": "",
          "type": "bool"
        },
        {
          "name": "",
          "type": "string"
        }
      ],
      "payable": false,
      "stateMutability": "view",
      "type": "function"
    },
    {
      "constant": true,
      "inputs": [],
      "name": "raisedAmount",
      "outputs": [
        {
          "name": "",
          "type": "uint256"
        }
      ],
      "payable": false,
      "stateMutability": "view",
      "type": "function"
    },
    {
      "constant": false,
      "inputs": [
        {
          "name": "proposalIndex",
          "type": "uint256"
        },
        {
          "name": "vote",
          "type": "uint8"
        }
      ],
      "name": "voteInProposal",
      "outputs": [],
      "payable": false,
      "stateMutability": "nonpayable",
      "type": "function"
    },
    {
      "constant": false,
      "inputs": [
        {
          "name": "newOwner",
          "type": "address"
        }
      ],
      "name": "transferOwnership",
      "outputs": [],
      "payable": false,
      "stateMutability": "nonpayable",
      "type": "function"
    },
    {
      "inputs": [
        {
          "name": "_tokenAddr",
          "type": "address"
        },
        {
          "name": "_participates",
          "type": "address[]"
        },
        {
          "name": "names",
          "type": "bytes32[]"
        }
      ],
      "payable": false,
      "stateMutability": "nonpayable",
      "type": "constructor"
    },
    {
      "payable": true,
      "stateMutability": "payable",
      "type": "fallback"
    },
    {
      "anonymous": false,
      "inputs": [
        {
          "indexed": true,
          "name": "to",
          "type": "address"
        },
        {
          "indexed": false,
          "name": "value",
          "type": "uint256"
        }
      ],
      "name": "BoughtTokens",
      "type": "event"
    },
    {
      "anonymous": false,
      "inputs": [
        {
          "indexed": false,
          "name": "description",
          "type": "bytes32"
        },
        {
          "indexed": false,
          "name": "proposalIndex",
          "type": "uint256"
        },
        {
          "indexed": false,
          "name": "addr",
          "type": "address"
        },
        {
          "indexed": false,
          "name": "vote",
          "type": "uint8"
        }
      ],
      "name": "Vote",
      "type": "event"
    },
    {
      "anonymous": false,
      "inputs": [
        {
          "indexed": false,
          "name": "description",
          "type": "bytes32"
        },
        {
          "indexed": false,
          "name": "result",
          "type": "bool"
        },
        {
          "indexed": false,
          "name": "proposalIndex",
          "type": "uint256"
        }
      ],
      "name": "FinishVoting",
      "type": "event"
    },
    {
      "anonymous": false,
      "inputs": [
        {
          "indexed": false,
          "name": "description",
          "type": "bytes32"
        },
        {
          "indexed": false,
          "name": "endTime",
          "type": "uint256"
        },
        {
          "indexed": false,
          "name": "actionType",
          "type": "uint8"
        },
        {
          "indexed": false,
          "name": "actionAddress",
          "type": "address"
        },
        {
          "indexed": false,
          "name": "name",
          "type": "bytes32"
        },
        {
          "indexed": false,
          "name": "amount",
          "type": "uint256"
        },
        {
          "indexed": false,
          "name": "proposalIndex",
          "type": "uint256"
        }
      ],
      "name": "ProposalCreated",
      "type": "event"
    },
    {
      "constant": false,
      "inputs": [
        {
          "name": "transport",
          "type": "address"
        }
      ],
      "name": "initialize",
      "outputs": [],
      "payable": false,
      "stateMutability": "nonpayable",
      "type": "function"
    },
    {
      "constant": true,
      "inputs": [],
      "name": "isActive",
      "outputs": [
        {
          "name": "",
          "type": "bool"
        }
      ],
      "payable": false,
      "stateMutability": "view",
      "type": "function"
    },
    {
      "constant": true,
      "inputs": [],
      "name": "info",
      "outputs": [
        {
          "name": "",
          "type": "uint256"
        },
        {
          "name": "",
          "type": "uint256"
        },
        {
          "name": "",
          "type": "uint256"
        },
        {
          "name": "",
          "type": "uint256"
        },
        {
          "name": "",
          "type": "bool"
        },
        {
          "name": "",
          "type": "bool"
        },
        {
          "name": "",
          "type": "uint256[]"
        },
        {
          "name": "",
          "type": "uint256[]"
        },
        {
          "name": "",
          "type": "uint256"
        }
      ],
      "payable": false,
      "stateMutability": "view",
      "type": "function"
    },
    {
      "constant": true,
      "inputs": [],
      "name": "goalReached",
      "outputs": [
        {
          "name": "",
          "type": "bool"
        }
      ],
      "payable": false,
      "stateMutability": "view",
      "type": "function"
    },
    {
      "constant": false,
      "inputs": [
        {
          "name": "discount",
          "type": "uint256"
        }
      ],
      "name": "setDiscount",
      "outputs": [],
      "payable": false,
      "stateMutability": "nonpayable",
      "type": "function"
    },
    {
      "constant": false,
      "inputs": [
        {
          "name": "_enabled",
          "type": "bool"
        }
      ],
      "name": "setEnabled",
      "outputs": [
        {
          "name": "",
          "type": "bool"
        }
      ],
      "payable": false,
      "stateMutability": "nonpayable",
      "type": "function"
    },
    {
      "constant": true,
      "inputs": [],
      "name": "getPhase",
      "outputs": [
        {
          "name": "res",
          "type": "uint256"
        }
      ],
      "payable": false,
      "stateMutability": "view",
      "type": "function"
    },
    {
      "constant": true,
      "inputs": [],
      "name": "leftInActualPhase",
      "outputs": [
        {
          "name": "res",
          "type": "uint256"
        }
      ],
      "payable": false,
      "stateMutability": "view",
      "type": "function"
    },
    {
      "constant": true,
      "inputs": [
        {
          "name": "amount",
          "type": "uint256"
        }
      ],
      "name": "getPrice",
      "outputs": [
        {
          "name": "",
          "type": "uint256"
        }
      ],
      "payable": false,
      "stateMutability": "view",
      "type": "function"
    },
    {
      "constant": true,
      "inputs": [
        {
          "name": "weiAmount",
          "type": "uint256"
        }
      ],
      "name": "getTokensForWei",
      "outputs": [
        {
          "name": "",
          "type": "uint256"
        }
      ],
      "payable": false,
      "stateMutability": "view",
      "type": "function"
    },
    {
      "constant": false,
      "inputs": [
        {
          "name": "buyer",
          "type": "address"
        },
        {
          "name": "tokens",
          "type": "uint256"
        }
      ],
      "name": "buyOverBackend",
      "outputs": [
        {
          "name": "res",
          "type": "bool"
        }
      ],
      "payable": false,
      "stateMutability": "nonpayable",
      "type": "function"
    },
    {
      "constant": false,
      "inputs": [],
      "name": "buyTokens",
      "outputs": [],
      "payable": true,
      "stateMutability": "payable",
      "type": "function"
    },
    {
      "constant": true,
      "inputs": [],
      "name": "tokensAvailable",
      "outputs": [
        {
          "name": "",
          "type": "uint256"
        }
      ],
      "payable": false,
      "stateMutability": "view",
      "type": "function"
    },
    {
      "constant": false,
      "inputs": [
        {
          "name": "_from",
          "type": "address"
        },
        {
          "name": "_value",
          "type": "uint256"
        },
        {
          "name": "_data",
          "type": "bytes"
        }
      ],
      "name": "tokenFallback",
      "outputs": [],
      "payable": false,
      "stateMutability": "nonpayable",
      "type": "function"
    },
    {
      "constant": true,
      "inputs": [],
      "name": "weiAailable",
      "outputs": [
        {
          "name": "",
          "type": "uint256"
        }
      ],
      "payable": false,
      "stateMutability": "view",
      "type": "function"
    }
  ],
  "bytecode": "0x608060405260006006556000601560006101000a81548160ff0219169083151502179055506000601560016101000a81548160ff0219169083151502179055506000601655600060175560006018553480156200005b57600080fd5b5060405162004a1038038062004a10833981018060405260608110156200008157600080fd5b81019080805190602001909291908051640100000000811115620000a457600080fd5b82810190506020810184811115620000bb57600080fd5b8151856020820283011164010000000082111715620000d957600080fd5b50509291906020018051640100000000811115620000f657600080fd5b828101905060208101848111156200010d57600080fd5b81518560208202830111640100000000821117156200012b57600080fd5b5050929190505050336000806101000a81548173ffffffffffffffffffffffffffffffffffffffff021916908373ffffffffffffffffffffffffffffffffffffffff16021790555082600160006101000a81548173ffffffffffffffffffffffffffffffffffffffff021916908373ffffffffffffffffffffffffffffffffffffffff1602179055508051825114151562000254576040517f08c379a000000000000000000000000000000000000000000000000000000000815260040180806020018281038252602c8152602001807f436f756e74206f662070617274696369706174657320616e64206e616d65732081526020017f6d7573742062652073616d65000000000000000000000000000000000000000081525060400191505060405180910390fd5b60028251111515620002f4576040517f08c379a00000000000000000000000000000000000000000000000000000000081526004018080602001828103825260298152602001807f436f756e74206f6620706172746963697061746573206d757374206265206d6f81526020017f7265207468616e2032000000000000000000000000000000000000000000000081525060400191505060405180910390fd5b60008090505b8083511115620003ee576004604080519081016040528084848151811015156200032057fe5b90602001906020020151815260200185848151811015156200033e57fe5b9060200190602002015173ffffffffffffffffffffffffffffffffffffffff16815250908060018154018082558091505090600182039060005260206000209060020201600090919290919091506000820151816000015560208201518160010160006101000a81548173ffffffffffffffffffffffffffffffffffffffff021916908373ffffffffffffffffffffffffffffffffffffffff1602179055505050508080600101915050620002fa565b5081516004816200040091906200065b565b50604080519081016040528064efdc68714064ffffffffff168152602001631dcd650064ffffffffff16815250600760006007811015156200043e57fe5b600202019060026200045292919062000690565b5060408051908101604052806501dfb8d0e28065ffffffffffff1681526020016311e1a30065ffffffffffff16815250600760016007811015156200049357fe5b60020201906002620004a7929190620006de565b5060408051908101604052806502cf953953c065ffffffffffff1681526020016305f5e10065ffffffffffff1681525060076002600781101515620004e857fe5b60020201906002620004fc929190620006de565b5060408051908101604052806503bf71a1c50065ffffffffffff1681526020016305f5e10065ffffffffffff16815250600760036007811015156200053d57fe5b6002020190600262000551929190620006de565b5060408051908101604052806504af4e0a364065ffffffffffff1681526020016305f5e10065ffffffffffff16815250600760046007811015156200059257fe5b60020201906002620005a6929190620006de565b50604080519081016040528065059f2a72a39865ffffffffffff1681526020016305f5e10065ffffffffffff1681525060076005600781101515620005e757fe5b60020201906002620005fb929190620006de565b50604080519081016040528065095e9c146c8065ffffffffffff168152602001640165a0bc0065ffffffffffff16815250600760066007811015156200063d57fe5b6002020190600262000651929190620006de565b50505050620007a6565b8154818355818111156200068b576002028160020283600052602060002091820191016200068a91906200072d565b5b505050565b8260028101928215620006cb579160200282015b82811115620006ca578251829064ffffffffff16905591602001919060010190620006a4565b5b509050620006da91906200077e565b5090565b82600281019282156200071a579160200282015b8281111562000719578251829065ffffffffffff16905591602001919060010190620006f2565b5b5090506200072991906200077e565b5090565b6200077b91905b8082111562000777576000808201600090556001820160006101000a81549073ffffffffffffffffffffffffffffffffffffffff02191690555060020162000734565b5090565b90565b620007a391905b808211156200079f57600081600090555060010162000785565b5090565b90565b61425a80620007b66000396000f3fe6080604052600436106101bc576000357c010000000000000000000000000000000000000000000000000000000090048063013cf08b146101c6578063048bc9ec1461027f5780630e22200114610305578063158ef93e1461033057806322f3e2d41461035f578063238dafe01461038e57806324434169146103bd57806327393278146103e8578063328d8f721461042357806335c1d34914610478578063370158ea146104fa5780634158506a146105e757806344c7c867146106125780634c9807bb1461063d57806350bfeadc1461073f57806360659a921461076a5780636ca196791461079557806378e97925146108825780637be6a034146108ad5780637d3d6522146109065780638da5cb5b14610935578063a90a3d341461098c578063aa8930d2146109db578063b1c9fe6e14610a06578063bfd6e79f14610a31578063c0ee0b8a14610b51578063c433050714610c43578063c4d66de814610d22578063c59ee1dc14610d73578063cb118a7214610d9e578063d035e72f14610e11578063d0febe4c14610e59578063dabd271914610e63578063e757223014610e9e578063eced028014610eed578063f2fde38b14610f18575b6101c4610f69565b005b3480156101d257600080fd5b506101ff600480360360208110156101e957600080fd5b81019080803590602001909291905050506111d0565b604051808881526020018781526020018660ff1660ff16815260200185600381111561022757fe5b60ff1681526020018473ffffffffffffffffffffffffffffffffffffffff1673ffffffffffffffffffffffffffffffffffffffff16815260200183815260200182815260200197505050505050505060405180910390f35b34801561028b57600080fd5b50610303600480360360c08110156102a257600080fd5b810190808035906020019092919080359060200190929190803560ff169060200190929190803573ffffffffffffffffffffffffffffffffffffffff169060200190929190803590602001909291908035906020019092919050505061125b565b005b34801561031157600080fd5b5061031a61151b565b6040518082815260200191505060405180910390f35b34801561033c57600080fd5b5061034561153a565b604051808215151515815260200191505060405180910390f35b34801561036b57600080fd5b5061037461154d565b604051808215151515815260200191505060405180910390f35b34801561039a57600080fd5b506103a36115a1565b604051808215151515815260200191505060405180910390f35b3480156103c957600080fd5b506103d26115b4565b6040518082815260200191505060405180910390f35b3480156103f457600080fd5b506104216004803603602081101561040b57600080fd5b8101908080359060200190929190505050611696565b005b34801561042f57600080fd5b5061045e6004803603602081101561044657600080fd5b81019080803515159060200190929190505050611e86565b604051808215151515815260200191505060405180910390f35b34801561048457600080fd5b506104b16004803603602081101561049b57600080fd5b8101908080359060200190929190505050611f14565b604051808381526020018273ffffffffffffffffffffffffffffffffffffffff1673ffffffffffffffffffffffffffffffffffffffff1681526020019250505060405180910390f35b34801561050657600080fd5b5061050f611f67565b604051808a815260200189815260200188815260200187815260200186151515158152602001851515151581526020018060200180602001848152602001838103835286818151815260200191508051906020019060200280838360005b8381101561058857808201518184015260208101905061056d565b50505050905001838103825285818151815260200191508051906020019060200280838360005b838110156105ca5780820151818401526020810190506105af565b505050509050019b50505050505050505050505060405180910390f35b3480156105f357600080fd5b506105fc6120ec565b6040518082815260200191505060405180910390f35b34801561061e57600080fd5b506106276120f9565b6040518082815260200191505060405180910390f35b34801561064957600080fd5b506106b96004803603606081101561066057600080fd5b81019080803560ff169060200190929190803573ffffffffffffffffffffffffffffffffffffffff169060200190929190803573ffffffffffffffffffffffffffffffffffffffff169060200190929190505050612106565b604051808315151515815260200180602001828103825283818151815260200191508051906020019080838360005b838110156107035780820151818401526020810190506106e8565b50505050905090810190601f1680156107305780820380516001836020036101000a031916815260200191505b50935050505060405180910390f35b34801561074b57600080fd5b50610754612325565b6040518082815260200191505060405180910390f35b34801561077657600080fd5b5061077f61232e565b6040518082815260200191505060405180910390f35b3480156107a157600080fd5b506107ee600480360360408110156107b857600080fd5b8101908080359060200190929190803573ffffffffffffffffffffffffffffffffffffffff16906020019092919050505061242b565b604051808515151515815260200180602001848152602001838152602001828103825285818151815260200191508051906020019080838360005b83811015610844578082015181840152602081019050610829565b50505050905090810190601f1680156108715780820380516001836020036101000a031916815260200191505b509550505050505060405180910390f35b34801561088e57600080fd5b50610897612cce565b6040518082815260200191505060405180910390f35b3480156108b957600080fd5b506108f0600480360360408110156108d057600080fd5b810190808035906020019092919080359060200190929190505050612cd4565b6040518082815260200191505060405180910390f35b34801561091257600080fd5b5061091b612d00565b604051808215151515815260200191505060405180910390f35b34801561094157600080fd5b5061094a612d12565b604051808273ffffffffffffffffffffffffffffffffffffffff1673ffffffffffffffffffffffffffffffffffffffff16815260200191505060405180910390f35b34801561099857600080fd5b506109c5600480360360208110156109af57600080fd5b8101908080359060200190929190505050612d38565b6040518082815260200191505060405180910390f35b3480156109e757600080fd5b506109f061306a565b6040518082815260200191505060405180910390f35b348015610a1257600080fd5b50610a1b613070565b6040518082815260200191505060405180910390f35b348015610a3d57600080fd5b50610a6a60048036036020811015610a5457600080fd5b8101908080359060200190929190505050613076565b60405180806020018060200180602001848103845287818151815260200191508051906020019060200280838360005b83811015610ab5578082015181840152602081019050610a9a565b50505050905001848103835286818151815260200191508051906020019060200280838360005b83811015610af7578082015181840152602081019050610adc565b50505050905001848103825285818151815260200191508051906020019060200280838360005b83811015610b39578082015181840152602081019050610b1e565b50505050905001965050505050505060405180910390f35b348015610b5d57600080fd5b50610c4160048036036060811015610b7457600080fd5b81019080803573ffffffffffffffffffffffffffffffffffffffff1690602001909291908035906020019092919080359060200190640100000000811115610bbb57600080fd5b820183602082011115610bcd57600080fd5b80359060200191846001830284011164010000000083111715610bef57600080fd5b91908080601f016020809104026020016040519081016040528093929190818152602001838380828437600081840152601f19601f820116905080830192505050505050509192919290505050613432565b005b348015610c4f57600080fd5b50610c9c60048036036040811015610c6657600080fd5b8101908080359060200190929190803573ffffffffffffffffffffffffffffffffffffffff169060200190929190505050613437565b604051808315151515815260200180602001828103825283818151815260200191508051906020019080838360005b83811015610ce6578082015181840152602081019050610ccb565b50505050905090810190601f168015610d135780820380516001836020036101000a031916815260200191505b50935050505060405180910390f35b348015610d2e57600080fd5b50610d7160048036036020811015610d4557600080fd5b81019080803573ffffffffffffffffffffffffffffffffffffffff1690602001909291905050506136c4565b005b348015610d7f57600080fd5b50610d886137dd565b6040518082815260200191505060405180910390f35b348015610daa57600080fd5b50610df760048036036040811015610dc157600080fd5b81019080803573ffffffffffffffffffffffffffffffffffffffff169060200190929190803590602001909291905050506137e3565b604051808215151515815260200191505060405180910390f35b348015610e1d57600080fd5b50610e5760048036036040811015610e3457600080fd5b8101908080359060200190929190803560ff169060200190929190505050613a01565b005b610e61610f69565b005b348015610e6f57600080fd5b50610e9c60048036036020811015610e8657600080fd5b8101908080359060200190929190505050613c58565b005b348015610eaa57600080fd5b50610ed760048036036020811015610ec157600080fd5b8101908080359060200190929190505050613cbd565b6040518082815260200191505060405180910390f35b348015610ef957600080fd5b50610f02613f46565b6040518082815260200191505060405180910390f35b348015610f2457600080fd5b50610f6760048036036020811015610f3b57600080fd5b81019080803573ffffffffffffffffffffffffffffffffffffffff169060200190929190505050614009565b005b610f7161154d565b1515610f7957fe5b6000610f8434612d38565b90506001811015611023576040517f08c379a00000000000000000000000000000000000000000000000000000000081526004018080602001828103825260248152602001807f4572726f722c20746f6f206c6974746c6520616d6f756e74206f66206574686581526020017f7265756d0000000000000000000000000000000000000000000000000000000081525060400191505060405180910390fd5b611038346017546140e390919063ffffffff16565b601781905550600081111561112957600160009054906101000a900473ffffffffffffffffffffffffffffffffffffffff1673ffffffffffffffffffffffffffffffffffffffff1663a9059cbb33836040518363ffffffff167c0100000000000000000000000000000000000000000000000000000000028152600401808373ffffffffffffffffffffffffffffffffffffffff1673ffffffffffffffffffffffffffffffffffffffff16815260200182815260200192505050600060405180830381600087803b15801561110c57600080fd5b505af1158015611120573d6000803e3d6000fd5b50505050611171565b3373ffffffffffffffffffffffffffffffffffffffff166108fc349081150290604051600060405180830381858888f1935050505015801561116f573d6000803e3d6000fd5b505b3373ffffffffffffffffffffffffffffffffffffffff167f61b2357f75eed32a19939598e4c7563879bacd78e9d957c31f0f9f70a3fd14a0826040518082815260200191505060405180910390a26111c7613f46565b60068190555050565b6005818154811015156111df57fe5b90600052602060002090600602016000915090508060000154908060010154908060020160009054906101000a900460ff16908060020160019054906101000a900460ff16908060020160029054906101000a900473ffffffffffffffffffffffffffffffffffffffff16908060030154908060040154905087565b6000606061126a868633612106565b91509150811581901515611319576040517f08c379a00000000000000000000000000000000000000000000000000000000081526004018080602001828103825283818151815260200191508051906020019080838360005b838110156112de5780820151818401526020810190506112c3565b50505050905090810190601f16801561130b5780820380516001836020036101000a031916815260200191505b509250505060405180910390fd5b506000610e10880242019050600560e0604051908101604052808b8152602001838152602001600260ff16815260200189600381111561135557fe5b81526020018873ffffffffffffffffffffffffffffffffffffffff1681526020018781526020018681525090806001815401808255809150509060018203906000526020600020906006020160009091929091909150600082015181600001556020820151816001015560408201518160020160006101000a81548160ff021916908360ff16021790555060608201518160020160016101000a81548160ff0219169083600381111561140457fe5b021790555060808201518160020160026101000a81548173ffffffffffffffffffffffffffffffffffffffff021916908373ffffffffffffffffffffffffffffffffffffffff16021790555060a0820151816003015560c082015181600401555050507f5a22095404761c56fdc0a2e7cf9111a91ff494b817685d5b0c34ddc0f134c50e898289898989600160058054905003604051808881526020018781526020018660038111156114b357fe5b60ff1681526020018573ffffffffffffffffffffffffffffffffffffffff1673ffffffffffffffffffffffffffffffffffffffff16815260200184815260200183815260200182815260200197505050505050505060405180910390a1505050505050505050565b60003073ffffffffffffffffffffffffffffffffffffffff1631905090565b601560009054906101000a900460ff1681565b600060011515601560009054906101000a900460ff161515148015611585575060011515601560019054906101000a900460ff161515145b801561159c575060001515611598612d00565b1515145b905090565b601560019054906101000a900460ff1681565b6000801515601560009054906101000a900460ff16151514156115da5760009050611693565b60006115e461232e565b6410c388d00003905060008090505b806001600703111561168c578160078260078110151561160f57fe5b60020201600160028110151561162157fe5b0154101515611658578160078260078110151561163a57fe5b60020201600160028110151561164c57fe5b01540392505050611693565b60078160078110151561166757fe5b60020201600160028110151561167957fe5b01548203915080806001019150506115f3565b6000925050505b90565b600060606000806116a7853361242b565b935093509350935083158390151561175a576040517f08c379a00000000000000000000000000000000000000000000000000000000081526004018080602001828103825283818151815260200191508051906020019080838360005b8381101561171f578082015181840152602081019050611704565b50505050905090810190601f16801561174c5780820380516001836020036101000a031916815260200191505b509250505060405180910390fd5b5080821161176957600061176c565b60015b60058681548110151561177b57fe5b906000526020600020906006020160020160006101000a81548160ff021916908360ff16021790555080821115611e1257600060038111156117b957fe5b6005868154811015156117c857fe5b906000526020600020906006020160020160019054906101000a900460ff1660038111156117f257fe5b14156119c957600061184360058781548110151561180c57fe5b906000526020600020906006020160020160029054906101000a900473ffffffffffffffffffffffffffffffffffffffff16614101565b1415156118b8576040517f08c379a000000000000000000000000000000000000000000000000000000000815260040180806020018281038252601e8152602001807f54686973207061727469636970616e7420616c7265616479206578697374000081525060200191505060405180910390fd5b600460408051908101604052806005888154811015156118d457fe5b90600052602060002090600602016003015481526020016005888154811015156118fa57fe5b906000526020600020906006020160020160029054906101000a900473ffffffffffffffffffffffffffffffffffffffff1673ffffffffffffffffffffffffffffffffffffffff16815250908060018154018082558091505090600182039060005260206000209060020201600090919290919091506000820151816000015560208201518160010160006101000a81548173ffffffffffffffffffffffffffffffffffffffff021916908373ffffffffffffffffffffffffffffffffffffffff160217905550505050611e11565b600160038111156119d657fe5b6005868154811015156119e557fe5b906000526020600020906006020160020160019054906101000a900460ff166003811115611a0f57fe5b1415611b375760006001611a62600588815481101515611a2b57fe5b906000526020600020906006020160020160029054906101000a900473ffffffffffffffffffffffffffffffffffffffff16614101565b0390506004600160048054905003815481101515611a7c57fe5b9060005260206000209060020201600482815481101515611a9957fe5b9060005260206000209060020201600082015481600001556001820160009054906101000a900473ffffffffffffffffffffffffffffffffffffffff168160010160006101000a81548173ffffffffffffffffffffffffffffffffffffffff021916908373ffffffffffffffffffffffffffffffffffffffff1602179055509050506004805480919060019003611b3091906141ae565b5050611e10565b60026003811115611b4457fe5b600586815481101515611b5357fe5b906000526020600020906006020160020160019054906101000a900460ff166003811115611b7d57fe5b1415611c2f57600585815481101515611b9257fe5b906000526020600020906006020160020160029054906101000a900473ffffffffffffffffffffffffffffffffffffffff1673ffffffffffffffffffffffffffffffffffffffff166108fc600587815481101515611bec57fe5b9060005260206000209060060201600401549081150290604051600060405180830381858888f19350505050158015611c29573d6000803e3d6000fd5b50611e0f565b600380811115611c3b57fe5b600586815481101515611c4a57fe5b906000526020600020906006020160020160019054906101000a900460ff166003811115611c7457fe5b1415611e0e57600160009054906101000a900473ffffffffffffffffffffffffffffffffffffffff1673ffffffffffffffffffffffffffffffffffffffff166323b872dd600260009054906101000a900473ffffffffffffffffffffffffffffffffffffffff16600588815481101515611cea57fe5b906000526020600020906006020160020160029054906101000a900473ffffffffffffffffffffffffffffffffffffffff16600589815481101515611d2b57fe5b9060005260206000209060060201600401546040518463ffffffff167c0100000000000000000000000000000000000000000000000000000000028152600401808473ffffffffffffffffffffffffffffffffffffffff1673ffffffffffffffffffffffffffffffffffffffff1681526020018373ffffffffffffffffffffffffffffffffffffffff1673ffffffffffffffffffffffffffffffffffffffff1681526020018281526020019350505050600060405180830381600087803b158015611df557600080fd5b505af1158015611e09573d6000803e3d6000fd5b505050505b5b5b5b5b7fb89b889fb44aa067abcdcd537d53a8d8e84eb6ffa00368dd937318c80d77e75e600586815481101515611e4257fe5b906000526020600020906006020160000154828411876040518084815260200183151515158152602001828152602001935050505060405180910390a15050505050565b60008060009054906101000a900473ffffffffffffffffffffffffffffffffffffffff1673ffffffffffffffffffffffffffffffffffffffff163373ffffffffffffffffffffffffffffffffffffffff16141515611ee357600080fd5b81601560016101000a81548160ff021916908315150217905550601560019054906101000a900460ff169050919050565b600481815481101515611f2357fe5b90600052602060002090600202016000915090508060000154908060010160009054906101000a900473ffffffffffffffffffffffffffffffffffffffff16905082565b600080600080600080606080600060606007604051908082528060200260200182016040528015611fa75781602001602082028038833980820191505090505b50905060606007604051908082528060200260200182016040528015611fdc5781602001602082028038833980820191505090505b50905060008090505b600781101561207957600781600781101515611ffd57fe5b60020201600060028110151561200f57fe5b0154838281518110151561201f57fe5b906020019060200201818152505060078160078110151561203c57fe5b60020201600160028110151561204e57fe5b0154828281518110151561205e57fe5b90602001906020020181815250508080600101915050611fe5565b506410c388d00061208861232e565b6006546120936115b4565b601560009054906101000a900460ff16601560019054906101000a900460ff1687873073ffffffffffffffffffffffffffffffffffffffff16319a509a509a509a509a509a509a509a509a505050909192939495969798565b6000600480549050905090565b6000600580549050905090565b60006060600061211585614101565b9050600061212285614101565b141561216a5760016040805190810160405280601a81526020017f596f7520617265206e6f7420696e207061727469636970616e74000000000000815250925092505061231d565b6000600381111561217757fe5b86600381111561218357fe5b148015612191575060008114155b156121d85760016040805190810160405280601e81526020017f54686973207061727469636970616e7420616c72656164792065786973740000815250925092505061231d565b600160038111156121e557fe5b8660038111156121f157fe5b1480156121fe5750600081145b156122455760016040805190810160405280601f81526020017f54686973206973206e6f74207061727469636970616e74206164647265737300815250925092505061231d565b6001600381111561225257fe5b86600381111561225e57fe5b1480156122715750600260048054905011155b156122df576001606060405190810160405280602281526020017f4d696e696d616c20636f756e74206f66207061727469636970616e747320697381526020017f2032000000000000000000000000000000000000000000000000000000000000815250925092505061231d565b60006040805190810160405280600281526020017f6f6b00000000000000000000000000000000000000000000000000000000000081525092509250505b935093915050565b6410c388d00081565b6000600160009054906101000a900473ffffffffffffffffffffffffffffffffffffffff1673ffffffffffffffffffffffffffffffffffffffff166370a08231306040518263ffffffff167c0100000000000000000000000000000000000000000000000000000000028152600401808273ffffffffffffffffffffffffffffffffffffffff1673ffffffffffffffffffffffffffffffffffffffff16815260200191505060206040518083038186803b1580156123eb57600080fd5b505afa1580156123ff573d6000803e3d6000fd5b505050506040513d602081101561241557600080fd5b8101908080519060200190929190505050905090565b60006060600080600061243d86614101565b90506000809050600080905060008090506000600480549050905060008090505b808211156126b35760058c81548110151561247557fe5b9060005260206000209060060201600501600060048381548110151561249757fe5b906000526020600020906002020160010160009054906101000a900473ffffffffffffffffffffffffffffffffffffffff1673ffffffffffffffffffffffffffffffffffffffff1673ffffffffffffffffffffffffffffffffffffffff16815260200190815260200160002060000160009054906101000a900460ff16156126a6578280600101935050600160058d81548110151561253257fe5b9060005260206000209060060201600501600060048481548110151561255457fe5b906000526020600020906002020160010160009054906101000a900473ffffffffffffffffffffffffffffffffffffffff1673ffffffffffffffffffffffffffffffffffffffff1673ffffffffffffffffffffffffffffffffffffffff16815260200190815260200160002060000160019054906101000a900460ff1660ff1614156125e35784806001019550505b600060058d8154811015156125f457fe5b9060005260206000209060060201600501600060048481548110151561261657fe5b906000526020600020906002020160010160009054906101000a900473ffffffffffffffffffffffffffffffffffffffff1673ffffffffffffffffffffffffffffffffffffffff1673ffffffffffffffffffffffffffffffffffffffff16815260200190815260200160002060000160019054906101000a900460ff1660ff1614156126a55783806001019450505b5b808060010191505061245e565b50600085141561270b57600184846040805190810160405280601a81526020017f596f7520617265206e6f7420696e207061727469636970616e74000000000000815250919098509850985098505050505050612cc5565b8a60058054905011151561276757600184846040805190810160405280601781526020017f50726f706f73616c20646f6573206e6f74206578697374000000000000000000815250919098509850985098505050505050612cc5565b600260058c81548110151561277857fe5b906000526020600020906006020160020160009054906101000a900460ff1660ff161415156127ef57600184846040805190810160405280601381526020017f566f74696e67206861732066696e697368656400000000000000000000000000815250919098509850985098505050505050612cc5565b60058b8154811015156127fe57fe5b906000526020600020906006020160010154421115801561281f5750818114155b1561287257600184846040805190810160405280601681526020017f566f74696e67206973206e6f742066696e697368656400000000000000000000815250919098509850985098505050505050612cc5565b6002600381111561287f57fe5b60058c81548110151561288e57fe5b906000526020600020906006020160020160019054906101000a900460ff1660038111156128b857fe5b1480156128fb575060058b8154811015156128cf57fe5b9060005260206000209060060201600401543073ffffffffffffffffffffffffffffffffffffffff1631105b1561294e57600184846040805190810160405280600f81526020017f4c6f77204554482062616c616e63650000000000000000000000000000000000815250919098509850985098505050505050612cc5565b60038081111561295a57fe5b60058c81548110151561296957fe5b906000526020600020906006020160020160019054906101000a900460ff16600381111561299357fe5b148015612ad6575060058b8154811015156129aa57fe5b906000526020600020906006020160040154600160009054906101000a900473ffffffffffffffffffffffffffffffffffffffff1673ffffffffffffffffffffffffffffffffffffffff166370a08231600260009054906101000a900473ffffffffffffffffffffffffffffffffffffffff166040518263ffffffff167c0100000000000000000000000000000000000000000000000000000000028152600401808273ffffffffffffffffffffffffffffffffffffffff1673ffffffffffffffffffffffffffffffffffffffff16815260200191505060206040518083038186803b158015612a9957600080fd5b505afa158015612aad573d6000803e3d6000fd5b505050506040513d6020811015612ac357600080fd5b8101908080519060200190929190505050105b15612b2957600184846040805190810160405280600f81526020017f4c6f7720464c542062616c616e63650000000000000000000000000000000000815250919098509850985098505050505050612cc5565b60016003811115612b3657fe5b60058c815481101515612b4557fe5b906000526020600020906006020160020160019054906101000a900460ff166003811115612b6f57fe5b148015612b7c5750600281145b15612bf65760018484606060405190810160405280602881526020017f4d696e696d616c20636f756e74206f6620766f7465642070617274696369706181526020017f6e74732069732032000000000000000000000000000000000000000000000000815250919098509850985098505050505050612cc5565b816004805490500382111515612c7b5760018484606060405190810160405280603181526020017f436f756e74206f6620766f746564207061727469636970616e7473206d75737481526020017f206265206d6f7265207468616e20353025000000000000000000000000000000815250919098509850985098505050505050612cc5565b600084846040805190810160405280600281526020017f6f6b0000000000000000000000000000000000000000000000000000000000008152509190985098509850985050505050505b92959194509250565b60165481565b600782600781101515612ce357fe5b6002020181600281101515612cf457fe5b01600091509150505481565b600080612d0b61232e565b1115905090565b600360009054906101000a900473ffffffffffffffffffffffffffffffffffffffff1681565b6000801515601560009054906101000a900460ff1615151415612dc3576040517f08c379a00000000000000000000000000000000000000000000000000000000081526004018080602001828103825260188152602001807f546f6b656e206973206e6f7420696e697469616c697a6564000000000000000081525060200191505060405180910390fd5b65014c9d7e1888821015612e3f576040517f08c379a00000000000000000000000000000000000000000000000000000000081526004018080602001828103825260188152602001807f6d696e207765692069732031343238353731343239303030000000000000000081525060200191505060405180910390fd5b60008290506000612e4e61232e565b6410c388d00003905060006006549050600080905060008090505b6000851115612ff75783600784600781101515612e8257fe5b600202016001600281101515612e9457fe5b01540390506000811115612f4a5784600784600781101515612eb257fe5b600202016000600281101515612ec457fe5b01548202101515612f0b57600783600781101515612ede57fe5b600202016000600281101515612ef057fe5b015485811515612efc57fe5b04820195505050505050613065565b8082019150600783600781101515612f1f57fe5b600202016000600281101515612f3157fe5b0154810285039450600093508280600101935050612f7a565b600783600781101515612f5957fe5b600202016001600281101515612f6b57fe5b01548403935082806001019350505b600783101515612ff2576040517f08c379a000000000000000000000000000000000000000000000000000000000815260040180806020018281038252601b8152602001807f4572726f722c207765206861766520612066657720746f6b656e73000000000081525060200191505060405180910390fd5b612e69565b6040517f08c379a000000000000000000000000000000000000000000000000000000000815260040180806020018281038252601f8152602001807f4572726f7220696e206d6574686f6420676574546f6b656e73466f725765690081525060200191505060405180910390fd5b919050565b60185481565b60065481565b6060806060836005805490501115156130f7576040517f08c379a00000000000000000000000000000000000000000000000000000000081526004018080602001828103825260128152602001807f50726f706f73616c206e6f74206578697374000000000000000000000000000081525060200191505060405180910390fd5b606060048054905060405190808252806020026020018201604052801561312d5781602001602082028038833980820191505090505b50905060606004805490506040519080825280602002602001820160405280156131665781602001602082028038833980820191505090505b509050606060048054905060405190808252806020026020018201604052801561319f5781602001602082028038833980820191505090505b509050600080905060008090505b80600480549050111561341d576005898154811015156131c957fe5b906000526020600020906006020160050160006004838154811015156131eb57fe5b906000526020600020906002020160010160009054906101000a900473ffffffffffffffffffffffffffffffffffffffff1673ffffffffffffffffffffffffffffffffffffffff1673ffffffffffffffffffffffffffffffffffffffff16815260200190815260200160002060000160009054906101000a900460ff16156134105760048181548110151561327c57fe5b906000526020600020906002020160010160009054906101000a900473ffffffffffffffffffffffffffffffffffffffff1685838151811015156132bc57fe5b9060200190602002019073ffffffffffffffffffffffffffffffffffffffff16908173ffffffffffffffffffffffffffffffffffffffff168152505060048181548110151561330757fe5b906000526020600020906002020160000154848381518110151561332757fe5b906020019060200201818152505060058981548110151561334457fe5b9060005260206000209060060201600501600060048381548110151561336657fe5b906000526020600020906002020160010160009054906101000a900473ffffffffffffffffffffffffffffffffffffffff1673ffffffffffffffffffffffffffffffffffffffff1673ffffffffffffffffffffffffffffffffffffffff16815260200190815260200160002060000160019054906101000a900460ff1683838151811015156133f157fe5b9060200190602002019060ff16908160ff168152505081806001019250505b80806001019150506131ad565b50838383965096509650505050509193909250565b505050565b60006060600061344684614101565b905060008114156134935760016040805190810160405280601a81526020017f596f7520617265206e6f7420696e207061727469636970616e7400000000000081525092509250506136bd565b846005805490501115156134e35760016040805190810160405280601281526020017f50726f706f73616c206e6f74206578697374000000000000000000000000000081525092509250506136bd565b60026005868154811015156134f457fe5b906000526020600020906006020160020160009054906101000a900460ff1660ff1614151561355f5760016040805190810160405280601181526020017f50726f706f73616c2066696e697368656400000000000000000000000000000081525092509250506136bd565b60058581548110151561356e57fe5b906000526020600020906006020160010154421015156135ca5760016040805190810160405280601681526020017f54696d6520666f7220766f74696e67206973206f75740000000000000000000081525092509250506136bd565b6005858154811015156135d957fe5b906000526020600020906006020160050160008573ffffffffffffffffffffffffffffffffffffffff1673ffffffffffffffffffffffffffffffffffffffff16815260200190815260200160002060000160009054906101000a900460ff161561367f5760016040805190810160405280601581526020017f596f752061726520616c726561647920766f746564000000000000000000000081525092509250506136bd565b60006040805190810160405280600281526020017f6f6b00000000000000000000000000000000000000000000000000000000000081525092509250505b9250929050565b6000809054906101000a900473ffffffffffffffffffffffffffffffffffffffff1673ffffffffffffffffffffffffffffffffffffffff163373ffffffffffffffffffffffffffffffffffffffff1614151561371f57600080fd5b60001515601560009054906101000a900460ff16151514151561374157600080fd5b6410c388d00061374f61232e565b1015151561375c57600080fd5b80600260006101000a81548173ffffffffffffffffffffffffffffffffffffffff021916908373ffffffffffffffffffffffffffffffffffffffff1602179055506001601560006101000a81548160ff0219169083151502179055506001601560016101000a81548160ff0219169083151502179055504260168190555050565b60175481565b60008060009054906101000a900473ffffffffffffffffffffffffffffffffffffffff1673ffffffffffffffffffffffffffffffffffffffff163373ffffffffffffffffffffffffffffffffffffffff1614151561384057600080fd5b8161384961232e565b1115156138be576040517f08c379a000000000000000000000000000000000000000000000000000000000815260040180806020018281038252601b8152602001807f4572726f722c207765206861766520612066657720746f6b656e73000000000081525060200191505060405180910390fd5b600160009054906101000a900473ffffffffffffffffffffffffffffffffffffffff1673ffffffffffffffffffffffffffffffffffffffff1663a9059cbb84846040518363ffffffff167c0100000000000000000000000000000000000000000000000000000000028152600401808373ffffffffffffffffffffffffffffffffffffffff1673ffffffffffffffffffffffffffffffffffffffff16815260200182815260200192505050600060405180830381600087803b15801561398357600080fd5b505af1158015613997573d6000803e3d6000fd5b505050503373ffffffffffffffffffffffffffffffffffffffff167f61b2357f75eed32a19939598e4c7563879bacd78e9d957c31f0f9f70a3fd14a0836040518082815260200191505060405180910390a26139f1613f46565b6006819055506001905092915050565b60006060613a0f8433613437565b91509150811581901515613abe576040517f08c379a00000000000000000000000000000000000000000000000000000000081526004018080602001828103825283818151815260200191508051906020019080838360005b83811015613a83578082015181840152602081019050613a68565b50505050905090810190601f168015613ab05780820380516001836020036101000a031916815260200191505b509250505060405180910390fd5b506001600585815481101515613ad057fe5b906000526020600020906006020160050160003373ffffffffffffffffffffffffffffffffffffffff1673ffffffffffffffffffffffffffffffffffffffff16815260200190815260200160002060000160006101000a81548160ff02191690831515021790555082600585815481101515613b4857fe5b906000526020600020906006020160050160003373ffffffffffffffffffffffffffffffffffffffff1673ffffffffffffffffffffffffffffffffffffffff16815260200190815260200160002060000160016101000a81548160ff021916908360ff1602179055507f09859833479d3666edeeab8dc08198cf10941655b46111c955f390c6610a9833600585815481101515613be157fe5b906000526020600020906006020160000154853386604051808581526020018481526020018373ffffffffffffffffffffffffffffffffffffffff1673ffffffffffffffffffffffffffffffffffffffff1681526020018260ff1660ff16815260200194505050505060405180910390a150505050565b6000809054906101000a900473ffffffffffffffffffffffffffffffffffffffff1673ffffffffffffffffffffffffffffffffffffffff163373ffffffffffffffffffffffffffffffffffffffff16141515613cb357600080fd5b8060188190555050565b6000801515601560009054906101000a900460ff1615151415613d48576040517f08c379a00000000000000000000000000000000000000000000000000000000081526004018080602001828103825260188152602001807f546f6b656e206973206e6f7420696e697469616c697a6564000000000000000081525060200191505060405180910390fd5b613d5061232e565b821115613dc5576040517f08c379a000000000000000000000000000000000000000000000000000000000815260040180806020018281038252601b8152602001807f4572726f722c207765206861766520612066657720746f6b656e73000000000081525060200191505060405180910390fd5b6000613dcf61232e565b6410c388d00003905060006006549050600080905060008090505b600086141515613ed35783600784600781101515613e0457fe5b600202016001600281101515613e1657fe5b01540390506000811115613e9e578581101515613e5f57600783600781101515613e3c57fe5b600202016000600281101515613e4e57fe5b015486028201945050505050613f41565b600783600781101515613e6e57fe5b600202016000600281101515613e8057fe5b01548102820191508086039550600093508280600101935050613ece565b600783600781101515613ead57fe5b600202016001600281101515613ebf57fe5b01548403935082806001019350505b613dea565b6040517f08c379a00000000000000000000000000000000000000000000000000000000081526004018080602001828103825260188152602001807f4572726f7220696e206d6574686f64206765745072696365000000000000000081525060200191505060405180910390fd5b919050565b6000801515601560009054906101000a900460ff1615151415613f6c5760009050614006565b6000613f7661232e565b6410c388d000039050600060065490505b8060016007031115613ffc5781600782600781101515613fa357fe5b600202016001600281101515613fb557fe5b0154101515613fc8578092505050614006565b600781600781101515613fd757fe5b600202016001600281101515613fe957fe5b0154820391508080600101915050613f87565b6001600703925050505b90565b6000809054906101000a900473ffffffffffffffffffffffffffffffffffffffff1673ffffffffffffffffffffffffffffffffffffffff163373ffffffffffffffffffffffffffffffffffffffff1614151561406457600080fd5b600073ffffffffffffffffffffffffffffffffffffffff168173ffffffffffffffffffffffffffffffffffffffff16141515156140a057600080fd5b806000806101000a81548173ffffffffffffffffffffffffffffffffffffffff021916908373ffffffffffffffffffffffffffffffffffffffff16021790555050565b60008082840190508381101515156140f757fe5b8091505092915050565b600080600090505b8060048054905011156141a3578273ffffffffffffffffffffffffffffffffffffffff1660048281548110151561413c57fe5b906000526020600020906002020160010160009054906101000a900473ffffffffffffffffffffffffffffffffffffffff1673ffffffffffffffffffffffffffffffffffffffff16141561419657600181019150506141a9565b8080600101915050614109565b50600090505b919050565b8154818355818111156141db576002028160020283600052602060002091820191016141da91906141e0565b5b505050565b61422b91905b80821115614227576000808201600090556001820160006101000a81549073ffffffffffffffffffffffffffffffffffffffff0219169055506002016141e6565b5090565b9056fea165627a7a72305820cbc3e83090dcd21970d381343e927d53d2e2edc251261f828d22391894f35de80029",
  "source": "pragma solidity ^0.5.1;\n\nimport \"./SafeMath.sol\";\nimport \"./Ownable.sol\";\nimport \"./FloteaToken.sol\";\nimport \"./VotingIco.sol\";\nimport \"./ERC223_receiving_contract.sol\";\n\n/**\n * @title FloteaICO\n * @dev FloteaICO contract is Ownable\n **/\ncontract FloteaICO is Ownable, VotingIco, ERC223ReceivingContract {\n  using SafeMath for uint256;\n\n  uint256 public constant initialTokens = 72 * 10**6 * 10**3;\n  \n  uint public phase = 0;\n  uint256[2][7] public phaseInfo;\n\n  \n  bool public initialized = false;\n  bool public enabled = false;\n  uint256 public startTime = 0;\n  uint256 public raisedAmount = 0;\n  uint256 public priceDiscount = 0;\n  /**\n   * BoughtTokens\n   * @dev Log tokens bought onto the blockchain\n   */\n  event BoughtTokens(address indexed to, uint256 value);\n\n  /**\n   * whenSaleIsActive\n   * @dev ensures that the contract is still active\n   **/\n  modifier whenSaleIsActive() {\n    // Check if sale is active\n    assert(isActive());\n    _;\n  }\n  \n  /**\n   * FloteaICO\n   * @dev FloteaICO constructor\n   **/\n  constructor(address _tokenAddr, address[] memory _participates, bytes32[] memory names) public {\n      token = FloteaToken(_tokenAddr);\n      \n      require(_participates.length == names.length, \"Count of participates and names must be same\");\n      require(_participates.length > 2, \"Count of participates must be more than 2\");\n        \n      for(uint i = 0; _participates.length > i; i++){\n          participants.push(Participant( names[i], _participates[i] ));\n      }\n      participants.length = _participates.length;\n\n      phaseInfo[0] = [ 1030195016000, 5 * 10**6 * 100];\n      phaseInfo[1] = [ 2060390032000, 3 * 10**6 * 100];\n      phaseInfo[2] = [ 3090585048000, 1 * 10**6 * 100];\n      phaseInfo[3] = [ 4120780064000, 1 * 10**6 * 100];\n      phaseInfo[4] = [ 5150975080000, 1 * 10**6 * 100];\n      phaseInfo[5] = [ 6181170095000, 1 * 10**6 * 100];\n      phaseInfo[6] = [10301950160000, 60 * 10**6 * 100];\n  }  \n  \n  /**\n   * initialize\n   * @dev Initialize the contract\n   **/\n  function initialize(address transport) public onlyOwner {\n      require(initialized == false); // Can only be initialized once\n      require(tokensAvailable() >= initialTokens); // Must have enough tokens allocated\n      transportAddress = transport;\n      initialized = true;\n      enabled = true;\n      startTime = now;\n  }\n\n  /**\n   * isActive\n   * @dev Determins if the contract is still active\n   **/\n  function isActive() public view returns (bool) {\n    return (\n        initialized == true &&\n        enabled == true &&\n        goalReached() == false // Goal must not already be reached\n    );\n  }\n\n\n  function info() public view returns (uint, uint, uint, uint, bool, bool, uint[] memory, uint[] memory, uint ){\n  uint[] memory prices = new uint[](phaseInfo.length);\n  uint[] memory tokens = new uint[](phaseInfo.length);\n  \n  for (uint i = 0; i < phaseInfo.length; i++) {\n    prices[i] = phaseInfo[i][0];\n    tokens[i] = phaseInfo[i][1];\n  }\n  return (\n      initialTokens,\n      tokensAvailable(),\n      phase,\n      leftInActualPhase(),\n      initialized,\n      enabled,\n      prices,\n      tokens,\n      address(this).balance\n    );\n  }\n\n  /**\n   * goalReached\n   * @dev Function to determin is goal has been reached\n   **/\n  function goalReached() public view returns (bool) {\n    return !(tokensAvailable() > 0);\n  }\n\n  /**\n   * @dev Fallback function if ether is sent to address insted of buyTokens function\n   **/\n  function () external payable{\n    buyTokens();\n  }\n\n  function setDiscount(uint256 discount) onlyOwner public{\n    priceDiscount = discount;\n  }\n\n  function setEnabled(bool _enabled) onlyOwner public returns (bool){\n    enabled = _enabled;\n    return enabled;\n  }\n\n  function getPhase() public view returns (uint res) {\n    if(initialized == false)\n      return 0;\n    uint buyedTokens = initialTokens - tokensAvailable();\n    uint p = phase;\n    while (phaseInfo.length -1 > p) {\n      if(phaseInfo[p][1] >= buyedTokens){\n        return p;\n      }\n      else {\n        buyedTokens -= phaseInfo[p][1];\n        p++;\n      }\n    }\n    return phaseInfo.length - 1;\n  }\n\n  function leftInActualPhase() public view returns (uint res) {\n    if(initialized == false)\n      return 0;\n    uint buyedTokens = initialTokens - tokensAvailable();\n    uint p = 0;\n    while (phaseInfo.length -1 > p) {\n      if(phaseInfo[p][1] >= buyedTokens){\n        return phaseInfo[p][1] - buyedTokens;\n      }\n      else {\n        buyedTokens -= phaseInfo[p][1];\n        p++;\n      }\n    }\n    return 0;\n  }\n  \n\n  function getPrice(uint amount) public view returns (uint){\n    if(initialized == false)\n      revert(\"Token is not initialized\");\n    if(amount > tokensAvailable())\n      revert(\"Error, we have a few tokens\");\n    uint buyedTokens = initialTokens - tokensAvailable();\n    uint p = phase;\n    uint price = 0;\n    uint freeTokensInPhase = 0;\n\n    while (amount != 0) {\n      freeTokensInPhase = phaseInfo[p][1] - buyedTokens;\n      if(freeTokensInPhase > 0){\n        if(freeTokensInPhase >= amount){\n          return (price + amount * phaseInfo[p][0]);\n        } \n        else{\n          price += freeTokensInPhase * phaseInfo[p][0];\n          amount -= freeTokensInPhase;\n          buyedTokens = 0;\n          p++;\n        }\n      }\n      else {\n        buyedTokens -= phaseInfo[p][1];\n        p++;\n      }\n    }\n    revert(\"Error in method getPrice\");\n  }\n\n  function getTokensForWei(uint weiAmount) public view returns(uint) {\n    if(initialized == false)\n      revert(\"Token is not initialized\");\n    if(weiAmount < 1428571429000)\n      revert(\"min wei is 1428571429000\");\n    uint amount = weiAmount;\n    uint buyedTokens = initialTokens - tokensAvailable();\n    uint p = phase;\n    uint tokens = 0;\n    uint freeTokensInPhase = 0;\n    while (amount > 0) {\n      freeTokensInPhase = phaseInfo[p][1] - buyedTokens;\n      if(freeTokensInPhase > 0){\n        if(freeTokensInPhase * phaseInfo[p][0] >= amount){\n          return tokens + amount / phaseInfo[p][0];\n        } else {\n          tokens += freeTokensInPhase;\n          amount -= freeTokensInPhase * phaseInfo[p][0];\n          buyedTokens = 0;\n          p++;\n        }\n      }\n      else {\n        buyedTokens -= phaseInfo[p][1];\n        p++;\n      }\n      if(p >= phaseInfo.length)\n        revert(\"Error, we have a few tokens\");\n    }\n    revert(\"Error in method getTokensForWei\");\n  }\n\n  function buyOverBackend(address buyer, uint tokens) public onlyOwner returns(bool res) {\n    if(tokensAvailable() <= tokens)\n      revert(\"Error, we have a few tokens\");\n    token.transfer(buyer, tokens);\n    emit BoughtTokens(msg.sender, tokens);\n    phase = getPhase();\n    return true;\n  }\n  \n\n  // je poteba aby se tal token koupit pes ETH i pes Backend pes vlastnka\n  \n\n  /**\n   * buyTokens\n   * @dev function that sells available tokens\n   **/\n\n  function buyTokens() public payable whenSaleIsActive {\n\n    uint tokens = getTokensForWei(msg.value);\n    if(tokens < 1)\n      revert(\"Error, too little amount of ethereum\");\n\n    raisedAmount = raisedAmount.add(msg.value); // Increment raised amount\n    \n    if(tokens > 0)\n      token.transfer(msg.sender, tokens); // Send tokens to buyer\n    else\n      msg.sender.transfer(msg.value);\n\n    \n    emit BoughtTokens(msg.sender, tokens); // log event onto the blockchain*/\n    //owner.transfer(msg.value);// Send money to owner\n\n    phase = getPhase();\n  }\n\n  /**\n   * tokensAvailable\n   * @dev returns the number of tokens allocated to this contract\n   **/\n  function tokensAvailable() public view returns (uint256) {\n    return token.balanceOf(address(this));\n  }\n\n  function tokenFallback(address _from, uint _value, bytes memory _data) public {\n  }\n  \n  function weiAailable() public view returns (uint256) {\n      return address(this).balance;\n  }\n}\n",
  "sourcePath": "/home/martin/eth-contract/flt-transport/contracts/FloteaIco.sol",
  "compiler": {
    "name": "solc",
    "version": "0.5.1+commit.c8a2cb62.Emscripten.clang"
  },
  "schemaVersion": "3.0.6",
  "updatedAt": "2020-02-19T12:56:44.260Z",
  "devdoc": {
    "details": "FloteaICO contract is Ownable*",
    "methods": {
      "buyTokens()": {
        "details": "function that sells available tokens*"
      },
      "constructor": {
        "details": "FloteaICO constructor*"
      },
      "goalReached()": {
        "details": "Function to determin is goal has been reached*"
      },
      "initialize(address)": {
        "details": "Initialize the contract*"
      },
      "isActive()": {
        "details": "Determins if the contract is still active*"
      },
      "tokensAvailable()": {
        "details": "returns the number of tokens allocated to this contract*"
      },
      "transferOwnership(address)": {
        "details": "Allows the current owner to transfer control of the contract to a newOwner.",
        "params": {
          "newOwner": "The address to transfer ownership to."
        }
      }
    },
    "title": "FloteaICO"
  },
  "userdoc": {
    "methods": {
      "buyTokens()": {
        "notice": "buyTokens"
      },
      "constructor": "FloteaICO",
      "goalReached()": {
        "notice": "goalReached"
      },
      "initialize(address)": {
        "notice": "initialize"
      },
      "isActive()": {
        "notice": "isActive"
      },
      "tokensAvailable()": {
        "notice": "tokensAvailable"
      },
      "transferOwnership(address)": {
        "notice": "transferOwnership"
      }
    }
  }
}