{
  "contractName": "VotingCarrier",
  "abi": [
    {
      "constant": true,
      "inputs": [],
      "name": "owner",
      "outputs": [
        {
          "name": "",
          "type": "address"
        }
      ],
      "payable": false,
      "stateMutability": "view",
      "type": "function"
    },
    {
      "constant": true,
      "inputs": [
        {
          "name": "",
          "type": "uint256"
        }
      ],
      "name": "carrierProposals",
      "outputs": [
        {
          "name": "name",
          "type": "bytes32"
        },
        {
          "name": "web",
          "type": "bytes32"
        },
        {
          "name": "endTime",
          "type": "uint256"
        },
        {
          "name": "result",
          "type": "uint8"
        },
        {
          "name": "actionType",
          "type": "uint8"
        },
        {
          "name": "actionAddress",
          "type": "address"
        }
      ],
      "payable": false,
      "stateMutability": "view",
      "type": "function"
    },
    {
      "constant": true,
      "inputs": [
        {
          "name": "",
          "type": "uint256"
        }
      ],
      "name": "carrierVoters",
      "outputs": [
        {
          "name": "addr",
          "type": "address"
        },
        {
          "name": "enabled",
          "type": "bool"
        }
      ],
      "payable": false,
      "stateMutability": "view",
      "type": "function"
    },
    {
      "inputs": [
        {
          "name": "firstVoter",
          "type": "address"
        },
        {
          "name": "secondVoter",
          "type": "address"
        }
      ],
      "payable": false,
      "stateMutability": "nonpayable",
      "type": "constructor"
    },
    {
      "anonymous": false,
      "inputs": [
        {
          "indexed": false,
          "name": "proposalIndex",
          "type": "uint256"
        },
        {
          "indexed": false,
          "name": "addr",
          "type": "address"
        },
        {
          "indexed": false,
          "name": "vote",
          "type": "uint8"
        }
      ],
      "name": "VoteCarrier",
      "type": "event"
    },
    {
      "anonymous": false,
      "inputs": [
        {
          "indexed": false,
          "name": "result",
          "type": "bool"
        },
        {
          "indexed": false,
          "name": "proposalIndex",
          "type": "uint256"
        },
        {
          "indexed": false,
          "name": "votedYes",
          "type": "uint256"
        },
        {
          "indexed": false,
          "name": "votedNo",
          "type": "uint256"
        },
        {
          "indexed": false,
          "name": "resigned",
          "type": "uint256"
        },
        {
          "indexed": false,
          "name": "totalVoters",
          "type": "uint256"
        }
      ],
      "name": "FinishVotingCarrier",
      "type": "event"
    },
    {
      "anonymous": false,
      "inputs": [
        {
          "indexed": false,
          "name": "name",
          "type": "bytes32"
        },
        {
          "indexed": false,
          "name": "web",
          "type": "bytes32"
        },
        {
          "indexed": false,
          "name": "endTime",
          "type": "uint256"
        },
        {
          "indexed": false,
          "name": "actionType",
          "type": "uint8"
        },
        {
          "indexed": false,
          "name": "actionAddress",
          "type": "address"
        },
        {
          "indexed": false,
          "name": "proposalIndex",
          "type": "uint256"
        }
      ],
      "name": "CarrierProposalCreated",
      "type": "event"
    },
    {
      "constant": false,
      "inputs": [
        {
          "name": "_carriersAddress",
          "type": "address"
        }
      ],
      "name": "init",
      "outputs": [],
      "payable": false,
      "stateMutability": "nonpayable",
      "type": "function"
    },
    {
      "constant": true,
      "inputs": [
        {
          "name": "_actionType",
          "type": "uint8"
        },
        {
          "name": "_actionAddress",
          "type": "address"
        }
      ],
      "name": "beforeCreateCarrierProposal",
      "outputs": [
        {
          "name": "",
          "type": "bool"
        },
        {
          "name": "",
          "type": "string"
        }
      ],
      "payable": false,
      "stateMutability": "view",
      "type": "function"
    },
    {
      "constant": false,
      "inputs": [
        {
          "name": "_name",
          "type": "bytes32"
        },
        {
          "name": "_web",
          "type": "bytes32"
        },
        {
          "name": "_actionType",
          "type": "uint8"
        },
        {
          "name": "_actionAddress",
          "type": "address"
        }
      ],
      "name": "createCarrierProposal",
      "outputs": [],
      "payable": false,
      "stateMutability": "nonpayable",
      "type": "function"
    },
    {
      "constant": true,
      "inputs": [
        {
          "name": "proposalIndex",
          "type": "uint256"
        },
        {
          "name": "senderAddress",
          "type": "address"
        }
      ],
      "name": "beforeVoteInCarrierProposal",
      "outputs": [
        {
          "name": "",
          "type": "bool"
        },
        {
          "name": "",
          "type": "string"
        }
      ],
      "payable": false,
      "stateMutability": "view",
      "type": "function"
    },
    {
      "constant": false,
      "inputs": [
        {
          "name": "proposalIndex",
          "type": "uint256"
        },
        {
          "name": "vote",
          "type": "uint8"
        }
      ],
      "name": "voteInCarrierProposal",
      "outputs": [],
      "payable": false,
      "stateMutability": "nonpayable",
      "type": "function"
    },
    {
      "constant": true,
      "inputs": [
        {
          "name": "proposalIndex",
          "type": "uint256"
        }
      ],
      "name": "beforeFinishCarrierProposal",
      "outputs": [
        {
          "name": "error",
          "type": "bool"
        },
        {
          "name": "message",
          "type": "string"
        },
        {
          "name": "votedYes",
          "type": "uint256"
        },
        {
          "name": "votedNo",
          "type": "uint256"
        },
        {
          "name": "resigned",
          "type": "uint256"
        }
      ],
      "payable": false,
      "stateMutability": "view",
      "type": "function"
    },
    {
      "constant": false,
      "inputs": [
        {
          "name": "proposalIndex",
          "type": "uint256"
        }
      ],
      "name": "finishCarrierProposal",
      "outputs": [],
      "payable": false,
      "stateMutability": "nonpayable",
      "type": "function"
    },
    {
      "constant": true,
      "inputs": [
        {
          "name": "index",
          "type": "uint256"
        }
      ],
      "name": "statusOfCarrierProposal",
      "outputs": [
        {
          "name": "",
          "type": "address[]"
        },
        {
          "name": "",
          "type": "uint8[]"
        }
      ],
      "payable": false,
      "stateMutability": "view",
      "type": "function"
    },
    {
      "constant": true,
      "inputs": [],
      "name": "proposalsLength",
      "outputs": [
        {
          "name": "",
          "type": "uint256"
        }
      ],
      "payable": false,
      "stateMutability": "view",
      "type": "function"
    },
    {
      "constant": true,
      "inputs": [],
      "name": "VotersLength",
      "outputs": [
        {
          "name": "",
          "type": "uint256"
        }
      ],
      "payable": false,
      "stateMutability": "view",
      "type": "function"
    }
  ],
  "bytecode": "0x60806040523480156200001157600080fd5b50604051604080620028a1833981018060405260408110156200003357600080fd5b810190808051906020019092919080519060200190929190505050600260408051908101604052808473ffffffffffffffffffffffffffffffffffffffff1681526020016001151581525090806001815401808255809150509060018203906000526020600020016000909192909190915060008201518160000160006101000a81548173ffffffffffffffffffffffffffffffffffffffff021916908373ffffffffffffffffffffffffffffffffffffffff16021790555060208201518160000160146101000a81548160ff021916908315150217905550505050600260408051908101604052808373ffffffffffffffffffffffffffffffffffffffff1681526020016001151581525090806001815401808255809150509060018203906000526020600020016000909192909190915060008201518160000160006101000a81548173ffffffffffffffffffffffffffffffffffffffff021916908373ffffffffffffffffffffffffffffffffffffffff16021790555060208201518160000160146101000a81548160ff02191690831515021790555050505060028081620001e09190620001e9565b50505062000275565b815481835581811115620002135781836000526020600020918201910162000212919062000218565b5b505050565b6200027291905b808211156200026e57600080820160006101000a81549073ffffffffffffffffffffffffffffffffffffffff02191690556000820160146101000a81549060ff0219169055506001016200021f565b5090565b90565b61261c80620002856000396000f3fe6080604052600436106100bf576000357c01000000000000000000000000000000000000000000000000000000009004806319ab453c146100c457806344c7c867146101155780637315de8e146101405780638da5cb5b1461021f5780639027033114610276578063abf67ae1146102b1578063b41b166014610323578063b55a6723146103cd578063bf48fbc5146104af578063c2ec6bae14610535578063f9b74e3f14610560578063fce9ad5f14610638578063ff8518b714610680575b600080fd5b3480156100d057600080fd5b50610113600480360360208110156100e757600080fd5b81019080803573ffffffffffffffffffffffffffffffffffffffff169060200190929190505050610754565b005b34801561012157600080fd5b5061012a61085c565b6040518082815260200191505060405180910390f35b34801561014c57600080fd5b506101996004803603604081101561016357600080fd5b8101908080359060200190929190803573ffffffffffffffffffffffffffffffffffffffff169060200190929190505050610869565b604051808315151515815260200180602001828103825283818151815260200191508051906020019080838360005b838110156101e35780820151818401526020810190506101c8565b50505050905090810190601f1680156102105780820380516001836020036101000a031916815260200191505b50935050505060405180910390f35b34801561022b57600080fd5b50610234610b6a565b604051808273ffffffffffffffffffffffffffffffffffffffff1673ffffffffffffffffffffffffffffffffffffffff16815260200191505060405180910390f35b34801561028257600080fd5b506102af6004803603602081101561029957600080fd5b8101908080359060200190929190505050610b90565b005b3480156102bd57600080fd5b50610321600480360360808110156102d457600080fd5b810190808035906020019092919080359060200190929190803560ff169060200190929190803573ffffffffffffffffffffffffffffffffffffffff169060200190929190505050611464565b005b34801561032f57600080fd5b5061035c6004803603602081101561034657600080fd5b81019080803590602001909291905050506116ef565b604051808781526020018681526020018581526020018460ff1660ff1681526020018360ff1660ff1681526020018273ffffffffffffffffffffffffffffffffffffffff1673ffffffffffffffffffffffffffffffffffffffff168152602001965050505050505060405180910390f35b3480156103d957600080fd5b50610429600480360360408110156103f057600080fd5b81019080803560ff169060200190929190803573ffffffffffffffffffffffffffffffffffffffff169060200190929190505050611774565b604051808315151515815260200180602001828103825283818151815260200191508051906020019080838360005b83811015610473578082015181840152602081019050610458565b50505050905090810190601f1680156104a05780820380516001836020036101000a031916815260200191505b50935050505060405180910390f35b3480156104bb57600080fd5b506104e8600480360360208110156104d257600080fd5b810190808035906020019092919050505061193a565b604051808373ffffffffffffffffffffffffffffffffffffffff1673ffffffffffffffffffffffffffffffffffffffff168152602001821515151581526020019250505060405180910390f35b34801561054157600080fd5b5061054a611996565b6040518082815260200191505060405180910390f35b34801561056c57600080fd5b506105996004803603602081101561058357600080fd5b81019080803590602001909291905050506119a3565b604051808060200180602001838103835285818151815260200191508051906020019060200280838360005b838110156105e05780820151818401526020810190506105c5565b50505050905001838103825284818151815260200191508051906020019060200280838360005b83811015610622578082015181840152602081019050610607565b5050505090500194505050505060405180910390f35b34801561064457600080fd5b5061067e6004803603604081101561065b57600080fd5b8101908080359060200190929190803560ff169060200190929190505050611cd5565b005b34801561068c57600080fd5b506106b9600480360360208110156106a357600080fd5b8101908080359060200190929190505050611f04565b604051808615151515815260200180602001858152602001848152602001838152602001828103825286818151815260200191508051906020019080838360005b838110156107155780820151818401526020810190506106fa565b50505050905090810190601f1680156107425780820380516001836020036101000a031916815260200191505b50965050505050505060405180910390f35b600073ffffffffffffffffffffffffffffffffffffffff166000809054906101000a900473ffffffffffffffffffffffffffffffffffffffff1673ffffffffffffffffffffffffffffffffffffffff16141515610819576040517f08c379a000000000000000000000000000000000000000000000000000000000815260040180806020018281038252601f8152602001807f436f6e747261637420697320616c726561647920696e697469616c697a65640081525060200191505060405180910390fd5b806000806101000a81548173ffffffffffffffffffffffffffffffffffffffff021916908373ffffffffffffffffffffffffffffffffffffffff16021790555050565b6000600380549050905090565b600060606000610878846124c1565b905060008114156108c55760016040805190810160405280601581526020017f596f7520617265206e6f7420696e20766f7465727300000000000000000000008152509250925050610b63565b6002600182038154811015156108d757fe5b9060005260206000200160000160149054906101000a900460ff16151561093a5760016040805190810160405280600e81526020017f596f75206172652062616e6e65640000000000000000000000000000000000008152509250925050610b63565b8460038054905011156109895760016040805190810160405280601281526020017f50726f706f73616c206e6f7420657869737400000000000000000000000000008152509250925050610b63565b600260038681548110151561099a57fe5b906000526020600020906005020160030160009054906101000a900460ff1660ff16141515610a055760016040805190810160405280601881526020017f4361727269657250726f706f73616c2066696e697368656400000000000000008152509250925050610b63565b600385815481101515610a1457fe5b90600052602060002090600502016002015442101515610a705760016040805190810160405280601681526020017f54696d6520666f7220766f74696e67206973206f7574000000000000000000008152509250925050610b63565b600385815481101515610a7f57fe5b906000526020600020906005020160040160008573ffffffffffffffffffffffffffffffffffffffff1673ffffffffffffffffffffffffffffffffffffffff16815260200190815260200160002060000160009054906101000a900460ff1615610b255760016040805190810160405280601581526020017f596f752061726520616c726561647920766f74656400000000000000000000008152509250925050610b63565b60006040805190810160405280600281526020017f6f6b00000000000000000000000000000000000000000000000000000000000081525092509250505b9250929050565b600160009054906101000a900473ffffffffffffffffffffffffffffffffffffffff1681565b600060606000806000610ba286611f04565b94509450945094509450841584901515610c57576040517f08c379a00000000000000000000000000000000000000000000000000000000081526004018080602001828103825283818151815260200191508051906020019080838360005b83811015610c1c578082015181840152602081019050610c01565b50505050905090810190601f168015610c495780820380516001836020036101000a031916815260200191505b509250505060405180910390fd5b50818311610c66576000610c69565b60015b600387815481101515610c7857fe5b906000526020600020906005020160030160006101000a81548160ff021916908360ff160217905550600060028054905090506000600388815481101515610cbc57fe5b906000526020600020906005020160030160029054906101000a900473ffffffffffffffffffffffffffffffffffffffff1690506000610cfb826124c1565b9050848611156113f457600060038a815481101515610d1657fe5b906000526020600020906005020160030160019054906101000a900460ff1660ff16148015610d8757506000811480610d86575060008114158015610d855750600260018203815481101515610d6857fe5b9060005260206000200160000160149054906101000a900460ff16155b5b5b1561109a576000811415610f7f57600260408051908101604052808473ffffffffffffffffffffffffffffffffffffffff1681526020016001151581525090806001815401808255809150509060018203906000526020600020016000909192909190915060008201518160000160006101000a81548173ffffffffffffffffffffffffffffffffffffffff021916908373ffffffffffffffffffffffffffffffffffffffff16021790555060208201518160000160146101000a81548160ff0219169083151502179055505050506000809054906101000a900473ffffffffffffffffffffffffffffffffffffffff1673ffffffffffffffffffffffffffffffffffffffff1663bbc064ab60038b815481101515610ea257fe5b90600052602060002090600502016000015460038c815481101515610ec357fe5b906000526020600020906005020160010154856040518463ffffffff167c0100000000000000000000000000000000000000000000000000000000028152600401808481526020018381526020018273ffffffffffffffffffffffffffffffffffffffff1673ffffffffffffffffffffffffffffffffffffffff1681526020019350505050600060405180830381600087803b158015610f6257600080fd5b505af1158015610f76573d6000803e3d6000fd5b50505050611099565b6001600260018303815481101515610f9357fe5b9060005260206000200160000160146101000a81548160ff0219169083151502179055506000809054906101000a900473ffffffffffffffffffffffffffffffffffffffff1673ffffffffffffffffffffffffffffffffffffffff16630278de238360006040518363ffffffff167c0100000000000000000000000000000000000000000000000000000000028152600401808373ffffffffffffffffffffffffffffffffffffffff1673ffffffffffffffffffffffffffffffffffffffff1681526020018215151515815260200192505050600060405180830381600087803b15801561108057600080fd5b505af1158015611094573d6000803e3d6000fd5b505050505b5b600160038a8154811015156110ab57fe5b906000526020600020906005020160030160019054906101000a900460ff1660ff1614801561111057506000811415801561110f57506002600182038154811015156110f357fe5b9060005260206000200160000160149054906101000a900460ff165b5b801561111c5750600283115b156113f35760026001840381548110151561113357fe5b9060005260206000200160026001830381548110151561114f57fe5b906000526020600020016000820160009054906101000a900473ffffffffffffffffffffffffffffffffffffffff168160000160006101000a81548173ffffffffffffffffffffffffffffffffffffffff021916908373ffffffffffffffffffffffffffffffffffffffff1602179055506000820160149054906101000a900460ff168160000160146101000a81548160ff0219169083151502179055509050506002805480919060019003611205919061256a565b5060008060009054906101000a900473ffffffffffffffffffffffffffffffffffffffff1673ffffffffffffffffffffffffffffffffffffffff16636d98dbbd846040518263ffffffff167c0100000000000000000000000000000000000000000000000000000000028152600401808273ffffffffffffffffffffffffffffffffffffffff1673ffffffffffffffffffffffffffffffffffffffff168152602001915050604080518083038186803b1580156112c157600080fd5b505afa1580156112d5573d6000803e3d6000fd5b505050506040513d60408110156112eb57600080fd5b81019080805190602001909291908051906020019092919050505050905080156113f1576000809054906101000a900473ffffffffffffffffffffffffffffffffffffffff1673ffffffffffffffffffffffffffffffffffffffff16630278de238460016040518363ffffffff167c0100000000000000000000000000000000000000000000000000000000028152600401808373ffffffffffffffffffffffffffffffffffffffff1673ffffffffffffffffffffffffffffffffffffffff1681526020018215151515815260200192505050600060405180830381600087803b1580156113d857600080fd5b505af11580156113ec573d6000803e3d6000fd5b505050505b505b5b7fbbcddfbdcfd5761d3f0e882316b007ce24b1b7815249ed4fe6193149f3b705608587118a888888886040518087151515158152602001868152602001858152602001848152602001838152602001828152602001965050505050505060405180910390a1505050505050505050565b600060606114728484611774565b91509150811581901515611521576040517f08c379a00000000000000000000000000000000000000000000000000000000081526004018080602001828103825283818151815260200191508051906020019080838360005b838110156114e65780820151818401526020810190506114cb565b50505050905090810190601f1680156115135780820380516001836020036101000a031916815260200191505b509250505060405180910390fd5b506000610e1042019050600360c060405190810160405280898152602001888152602001838152602001600260ff1681526020018760ff1681526020018673ffffffffffffffffffffffffffffffffffffffff168152509080600181540180825580915050906001820390600052602060002090600502016000909192909190915060008201518160000155602082015181600101556040820151816002015560608201518160030160006101000a81548160ff021916908360ff16021790555060808201518160030160016101000a81548160ff021916908360ff16021790555060a08201518160030160026101000a81548173ffffffffffffffffffffffffffffffffffffffff021916908373ffffffffffffffffffffffffffffffffffffffff1602179055505050507f84cd33a14b206caee36716f586430345947dc259f772dcfcb614965bbce9da828787838888600160038054905003604051808781526020018681526020018581526020018460ff1660ff1681526020018373ffffffffffffffffffffffffffffffffffffffff1673ffffffffffffffffffffffffffffffffffffffff168152602001828152602001965050505050505060405180910390a150505050505050565b6003818154811015156116fe57fe5b90600052602060002090600502016000915090508060000154908060010154908060020154908060030160009054906101000a900460ff16908060030160019054906101000a900460ff16908060030160029054906101000a900473ffffffffffffffffffffffffffffffffffffffff16905086565b600060606000611783846124c1565b905060008560ff16148015611799575060008114155b80156117ce57506002600182038154811015156117b257fe5b9060005260206000200160000160149054906101000a900460ff165b156118155760016040805190810160405280601f81526020017f54686973206361727269657220697320616c726561647920656e61626c6564008152509250925050611933565b60018560ff161480156118285750600081145b1561186f5760016040805190810160405280601681526020017f546869732063617272696572206e6f74206578697374000000000000000000008152509250925050611933565b60018560ff1614801561188757506002808054905011155b156118f5576001606060405190810160405280602281526020017f4d696e696d616c20636f756e74206f66207061727469636970616e747320697381526020017f20320000000000000000000000000000000000000000000000000000000000008152509250925050611933565b60006040805190810160405280600281526020017f6f6b00000000000000000000000000000000000000000000000000000000000081525092509250505b9250929050565b60028181548110151561194957fe5b906000526020600020016000915090508060000160009054906101000a900473ffffffffffffffffffffffffffffffffffffffff16908060000160149054906101000a900460ff16905082565b6000600280549050905090565b60608082600380549050111515611a22576040517f08c379a000000000000000000000000000000000000000000000000000000000815260040180806020018281038252601a8152602001807f436172726965722070726f706f73616c206e6f7420657869737400000000000081525060200191505060405180910390fd5b6060600280549050604051908082528060200260200182016040528015611a585781602001602082028038833980820191505090505b5090506060600280549050604051908082528060200260200182016040528015611a915781602001602082028038833980820191505090505b509050600080905060008090505b806002805490501115611cc657600387815481101515611abb57fe5b90600052602060002090600502016004016000600283815481101515611add57fe5b9060005260206000200160000160009054906101000a900473ffffffffffffffffffffffffffffffffffffffff1673ffffffffffffffffffffffffffffffffffffffff1673ffffffffffffffffffffffffffffffffffffffff16815260200190815260200160002060000160009054906101000a900460ff1615611cb957600281815481101515611b6a57fe5b9060005260206000200160000160009054906101000a900473ffffffffffffffffffffffffffffffffffffffff168483815181101515611ba657fe5b9060200190602002019073ffffffffffffffffffffffffffffffffffffffff16908173ffffffffffffffffffffffffffffffffffffffff1681525050600387815481101515611bf157fe5b90600052602060002090600502016004016000600283815481101515611c1357fe5b9060005260206000200160000160009054906101000a900473ffffffffffffffffffffffffffffffffffffffff1673ffffffffffffffffffffffffffffffffffffffff1673ffffffffffffffffffffffffffffffffffffffff16815260200190815260200160002060000160019054906101000a900460ff168383815181101515611c9a57fe5b9060200190602002019060ff16908160ff168152505081806001019250505b8080600101915050611a9f565b50828294509450505050915091565b60006060611ce38433610869565b91509150811581901515611d92576040517f08c379a00000000000000000000000000000000000000000000000000000000081526004018080602001828103825283818151815260200191508051906020019080838360005b83811015611d57578082015181840152602081019050611d3c565b50505050905090810190601f168015611d845780820380516001836020036101000a031916815260200191505b509250505060405180910390fd5b506001600385815481101515611da457fe5b906000526020600020906005020160040160003373ffffffffffffffffffffffffffffffffffffffff1673ffffffffffffffffffffffffffffffffffffffff16815260200190815260200160002060000160006101000a81548160ff02191690831515021790555082600385815481101515611e1c57fe5b906000526020600020906005020160040160003373ffffffffffffffffffffffffffffffffffffffff1673ffffffffffffffffffffffffffffffffffffffff16815260200190815260200160002060000160016101000a81548160ff021916908360ff1602179055507fa4121362880273e549184c64b3b6be247137a7fabf67829447b70922f467797e843385604051808481526020018373ffffffffffffffffffffffffffffffffffffffff1673ffffffffffffffffffffffffffffffffffffffff1681526020018260ff1660ff168152602001935050505060405180910390a150505050565b6000606060008060008060009050600080905060008090506000809050600060028054905090508a600380549050111515611f8b5760018585856040805190810160405280601281526020017f50726f706f73616c206e6f7420657869737400000000000000000000000000008152509291909950995099509950995050505050506124b8565b60008090505b808211156122985760038c815481101515611fa857fe5b90600052602060002090600502016004016000600283815481101515611fca57fe5b9060005260206000200160000160009054906101000a900473ffffffffffffffffffffffffffffffffffffffff1673ffffffffffffffffffffffffffffffffffffffff1673ffffffffffffffffffffffffffffffffffffffff16815260200190815260200160002060000160009054906101000a900460ff161561228b578280600101935050600260038d81548110151561206157fe5b9060005260206000209060050201600401600060028481548110151561208357fe5b9060005260206000200160000160009054906101000a900473ffffffffffffffffffffffffffffffffffffffff1673ffffffffffffffffffffffffffffffffffffffff1673ffffffffffffffffffffffffffffffffffffffff16815260200190815260200160002060000160019054906101000a900460ff1660ff16141561210e5783806001019450505b600160038d81548110151561211f57fe5b9060005260206000209060050201600401600060028481548110151561214157fe5b9060005260206000200160000160009054906101000a900473ffffffffffffffffffffffffffffffffffffffff1673ffffffffffffffffffffffffffffffffffffffff1673ffffffffffffffffffffffffffffffffffffffff16815260200190815260200160002060000160019054906101000a900460ff1660ff1614156121cc5785806001019650505b600060038d8154811015156121dd57fe5b906000526020600020906005020160040160006002848154811015156121ff57fe5b9060005260206000200160000160009054906101000a900473ffffffffffffffffffffffffffffffffffffffff1673ffffffffffffffffffffffffffffffffffffffff1673ffffffffffffffffffffffffffffffffffffffff16815260200190815260200160002060000160019054906101000a900460ff1660ff16141561228a5784806001019550505b5b8080600101915050611f91565b50600260038c8154811015156122aa57fe5b906000526020600020906005020160030160009054906101000a900460ff1660ff161415156123255760018585856040805190810160405280601581526020017f50726f706f73616c206861732066696e697368656400000000000000000000008152509291909950995099509950995050505050506124b8565b60038b81548110151561233457fe5b90600052602060002090600502016002015442111580156123555750818114155b156123ac5760018585856040805190810160405280601681526020017f566f74696e67206973206e6f742066696e6973686564000000000000000000008152509291909950995099509950995050505050506124b8565b600160038c8154811015156123bd57fe5b906000526020600020906005020160030160019054906101000a900460ff1660ff161480156123ec5750600281145b1561246a576001858585606060405190810160405280602281526020017f4d696e696d616c20636f756e74206f66207061727469636970616e747320697381526020017f20320000000000000000000000000000000000000000000000000000000000008152509291909950995099509950995050505050506124b8565b60008585856040805190810160405280600281526020017f6f6b0000000000000000000000000000000000000000000000000000000000008152509291909950995099509950995050505050505b91939590929450565b600080600090505b80600280549050111561255f578273ffffffffffffffffffffffffffffffffffffffff166002828154811015156124fc57fe5b9060005260206000200160000160009054906101000a900473ffffffffffffffffffffffffffffffffffffffff1673ffffffffffffffffffffffffffffffffffffffff1614156125525760018101915050612565565b80806001019150506124c9565b50600090505b919050565b815481835581811115612591578183600052602060002091820191016125909190612596565b5b505050565b6125ed91905b808211156125e957600080820160006101000a81549073ffffffffffffffffffffffffffffffffffffffff02191690556000820160146101000a81549060ff02191690555060010161259c565b5090565b9056fea165627a7a72305820850ba6878155dca5afeb9e7feb86136123d02f8dc70d8dcd65de3df684cb9ac60029",
  "source": "pragma solidity ^0.5.1;\n//pragma experimental ABIEncoderV2;\nimport \"./SafeMath.sol\";\nimport \"./Transport.sol\";\nimport \"./CarriersInterface.sol\";\n\ncontract VotingCarrier {\n    \n    event VoteCarrier(uint proposalIndex, address addr, uint8 vote);\n    event FinishVotingCarrier(bool result, uint proposalIndex, uint votedYes, uint votedNo, uint resigned, uint totalVoters);\n    event CarrierProposalCreated(bytes32 name, bytes32 web, uint endTime, uint8 actionType, address actionAddress, uint proposalIndex);\n    \n    struct VoteCarrierStatus {\n        bool voted;\n        uint8 vote; // 0 no 1 yes 2 resigned\n    }\n    \n    struct CarrierProposal {\n        bytes32 name;  // name of added carrier\n        bytes32 web;\n        uint endTime;\n        uint8 result; // 0 no 1 yes 2 notFinished\n        uint8 actionType; // 0 add 1 remove carrier\n        address payable actionAddress; // Add/Remove carrier or transfer address\n        mapping(address => VoteCarrierStatus) status;\n    }\n\n    struct CarrierVoter {\n        address payable addr;\n        bool enabled;\n    }\n    \n    struct CarrierVoterVote {\n        bytes32 name;\n        address addr;\n        uint8 vote;\n    }\n    \n    CarriersInterface carriers;\n    address payable public owner;\n    CarrierVoter[] public carrierVoters;\n    CarrierProposal[] public carrierProposals;\n    \n    constructor(address payable firstVoter, address payable secondVoter) public {\n        carrierVoters.push(CarrierVoter( firstVoter, true ));\n        carrierVoters.push(CarrierVoter( secondVoter, true ));\n        carrierVoters.length = 2;\n    }\n\n    function init(address _carriersAddress) public {\n        require(address(carriers) == address(0), \"Contract is already initialized\");\n        carriers = CarriersInterface(_carriersAddress);\n    }\n    \n    \n    function beforeCreateCarrierProposal(uint8 _actionType, address payable _actionAddress) public view returns(bool, string memory) {\n        uint index = findCarrierVoterIndex(_actionAddress);\n        if(_actionType == 0 && index != 0 && carrierVoters[index-1].enabled)\n            return(true, \"This carrier is already enabled\");\n        if(_actionType == 1 && index == 0)\n            return(true, \"This carrier not exist\");\n        if(_actionType == 1 && carrierVoters.length <= 2)\n            return(true, \"Minimal count of participants is 2\");\n        return(false, \"ok\");\n    }\n\n    function createCarrierProposal( bytes32 _name, bytes32 _web, uint8 _actionType, address payable _actionAddress) public{\n     \n        (bool error, string memory message) = beforeCreateCarrierProposal(_actionType, _actionAddress);\n        require (!error, message);\n\n        /* for production 14 days */\n        uint time = now + 1 hours; \n        carrierProposals.push(\n            CarrierProposal(_name, _web , time, 2,  _actionType, _actionAddress)\n        );\n        emit CarrierProposalCreated(_name, _web, time, _actionType, _actionAddress, carrierProposals.length-1);\n    }\n\n    function beforeVoteInCarrierProposal (uint proposalIndex, address senderAddress) public view returns(bool, string memory) {\n        uint index = findCarrierVoterIndex(senderAddress);\n        if(index == 0)\n            return(true, \"You are not in voters\");\n        if(!carrierVoters[index-1].enabled)\n            return(true, \"You are banned\");\n        if(carrierProposals.length > proposalIndex)\n            return(true, \"Proposal not exist\");\n        if(carrierProposals[proposalIndex].result != 2)\n            return(true, \"CarrierProposal finished\");\n        if(now >= carrierProposals[proposalIndex].endTime)\n            return(true, \"Time for voting is out\");\n        if(carrierProposals[proposalIndex].status[senderAddress].voted)\n            return(true, \"You are already voted\");\n        return(false, \"ok\");\n    }\n    \n    function voteInCarrierProposal (uint proposalIndex, uint8 vote) public {\n        (bool error, string memory message) = beforeVoteInCarrierProposal(proposalIndex, msg.sender);\n        require (!error, message);\n        carrierProposals[proposalIndex].status[msg.sender].voted = true;\n        carrierProposals[proposalIndex].status[msg.sender].vote = vote;\n        emit VoteCarrier(proposalIndex, msg.sender, vote);\n    }\n\n    function beforeFinishCarrierProposal (uint proposalIndex) public view \n    returns(bool error, string memory message, uint votedYes, uint votedNo, uint resigned) {\n        uint _votedYes = 0;\n        uint _votedNo = 0;\n        uint _resigned = 0;\n        uint _voted = 0;\n        uint _carrierVotersLength = carrierVoters.length;\n        \n        if(carrierProposals.length <= proposalIndex)\n            return(true, \"Proposal not exist\", _votedYes, _votedNo, _resigned);\n        \n        for(uint i = 0; _carrierVotersLength > i; i++){\n            if( carrierProposals[proposalIndex].status[carrierVoters[i].addr].voted ){\n                _voted++;\n                if(carrierProposals[proposalIndex].status[carrierVoters[i].addr].vote == 2)\n                    _resigned++;\n                if(carrierProposals[proposalIndex].status[carrierVoters[i].addr].vote == 1)\n                    _votedYes++;\n                if(carrierProposals[proposalIndex].status[carrierVoters[i].addr].vote == 0)\n                    _votedNo++;\n            }\n        }\n\n        if(carrierProposals[proposalIndex].result != 2)\n            return(true, \"Proposal has finished\", _votedYes, _votedNo, _resigned);\n        if(now <= carrierProposals[proposalIndex].endTime && _carrierVotersLength != _voted)\n            return(true, \"Voting is not finished\", _votedYes, _votedNo, _resigned);\n        if(carrierProposals[proposalIndex].actionType == 1 && _carrierVotersLength == 2)\n            return(true, \"Minimal count of participants is 2\", _votedYes, _votedNo, _resigned);\n        return(false, \"ok\", _votedYes, _votedNo, _resigned);\n    }\n    \n    \n    function finishCarrierProposal(uint proposalIndex) public{\n        (bool error, string memory message, uint votedYes, uint votedNo, uint resigned) = beforeFinishCarrierProposal(proposalIndex);\n        require (!error, message);\n\n        carrierProposals[proposalIndex].result = votedYes > votedNo? 1 : 0;\n        uint carrierVotersLength = carrierVoters.length;\n        address payable actionAddress = carrierProposals[proposalIndex].actionAddress;\n        uint carrierId = findCarrierVoterIndex(actionAddress);\n\n        if(votedYes > votedNo){\n            if(carrierProposals[proposalIndex].actionType == 0 && (carrierId == 0 || (carrierId != 0 && !carrierVoters[carrierId-1].enabled))){ // Add Voter\n                if(carrierId == 0){\n                    carrierVoters.push( CarrierVoter(actionAddress, true));\n                    carriers.addCarrier(carrierProposals[proposalIndex].name, carrierProposals[proposalIndex].web, actionAddress);\n                } else {\n                    carrierVoters[carrierId-1].enabled = true;\n                    carriers.setBanCarrier(actionAddress ,false);\n                }\n            } \n            if (carrierProposals[proposalIndex].actionType == 1 && (carrierId != 0 && carrierVoters[carrierId-1].enabled) && carrierVotersLength > 2) { // Remove Voter\n                carrierVoters[carrierId-1] = carrierVoters[carrierVotersLength-1]; // Copy last item on removed position and\n                carrierVoters.length--; // decrease length\n                (bool exist, ) = carriers.carrierExist(actionAddress);\n                if(exist) // For init voters\n                    carriers.setBanCarrier(actionAddress ,true);\n            }\n        }\n        emit FinishVotingCarrier(votedYes > votedNo, proposalIndex, votedYes, votedNo, resigned, carrierVotersLength);\n    }\n\n    function statusOfCarrierProposal (uint index) public view returns (address[] memory, uint8[] memory) {\n        require(carrierProposals.length > index, \"Carrier proposal not exist\");\n    \n        address[] memory addr = new address[](carrierVoters.length);\n        uint8[] memory vote = new uint8[](carrierVoters.length);\n        uint pom = 0;\n        for(uint i = 0; carrierVoters.length > i; i++){\n            if(carrierProposals[index].status[carrierVoters[i].addr].voted){\n                addr[pom] = carrierVoters[i].addr; \n                vote[pom] = carrierProposals[index].status[carrierVoters[i].addr].vote;\n                pom++;\n            }\n        }\n        \n        return (addr, vote);\n    }\n\n    function proposalsLength () public view returns (uint) {\n        return carrierProposals.length;\n    }\n\n    function VotersLength () public view returns (uint) {\n        return carrierVoters.length;\n    }\n    \n    function findCarrierVoterIndex(address addr) private view returns (uint) {\n        for(uint i = 0; carrierVoters.length > i; i++){\n            if(carrierVoters[i].addr == addr)\n            return i+1;\n        }\n        return 0;\n    }\n\n}",
  "sourcePath": "/home/martin/eth-contract/flt-transport/contracts/VotingCarrier.sol",
  "compiler": {
    "name": "solc",
    "version": "0.5.1+commit.c8a2cb62.Emscripten.clang"
  },
  "schemaVersion": "3.0.6",
  "updatedAt": "2020-02-19T12:56:44.276Z",
  "devdoc": {
    "methods": {}
  },
  "userdoc": {
    "methods": {}
  }
}